:1000000008308A0000280000FF00030E8301A600CC
:100010007F08A5000A08AD008A01A50E0408A70004
:100020002008A8002108A9002208AA002308AB0084
:100030002408AC00831383128C308400001D222816
:100040000C193528270884002808A0002908A100D9
:100050002A08A2002B08A3002C08A4002D088A005F
:10006000260E8300FF0E7F0E09008A11EF280A106A
:100070008A100A118207543465346D347034203488
:10008000203420340034543469346D3465342034E1
:10009000203420340034543469346D34653472347F
:1000A00020342034003450346F3477346534723463
:1000B000203420340034463461346E34203420340B
:1000C00020342034003443346F346F346C342034A3
:1000D000203420340034413464346A3420345434BD
:1000E0006D3470340034413464346A342034433421
:1000F0006C346B340034413464346A342034543406
:100100006D34723400344F347634653472342034B4
:1001100056342E340034203420342034203420341B
:100120004F344E34003420342034203420344F34C3
:100130004634463400340A108A100A118207BE344D
:10014000FF34EB34AA34AA34FE34FF34AB34023427
:100150005034BE34FF34EB34AA34FE34FA34AB34BA
:10016000AF3402342B34BE34FF34EB34AA34BA3407
:10017000BA34EF34EF3402342D34BE34FF34EB3470
:10018000AA34BE34FF34EB34AA3402344334BE34D0
:10019000FF34EB34AA34AA34FA34FF34AF340234D7
:1001A0005334BE34FF34EB34AA34AA34FF34FF3462
:1001B000AA3402345434BE34FF34EB34AA34EE345F
:1001C000FE34BB34AB3402347434BE34FF34EB340D
:1001D000AA34AE34FF34FB34AA3402344634AE0BB6
:1001E0001A290A30AE00C50A45083C3C031D062901
:1001F000C501C60A46083C3C031D0629C601C70ABC
:1002000047080D3C031D06290130C7003E1D1A2971
:10021000BF033F08FF3C031D1A293B30BF00C0034A
:100220004008FF3C031D1A293B30C000C1080319D8
:100230001A29C1030C118A11222868308400831303
:100240000008031931290530A100A001A00B2629BF
:10025000A10B25292E30A000A00B2C292F29800BC3
:100260002329003407136708F039E8008600871354
:1002700039293A298717E70E6708F039E800860020
:1002800087134229432987170530E8001D210034D0
:100290003D30831685000F308600033087008113C0
:1002A0001F149F141F159F151F1383121F179F17CD
:1002B00083169F1783121F14941200309400831624
:1002C00094000B308312970083160108C03906385A
:1002D0008100B53083129000073083169C0005081A
:1002E0000D308312A000A00B732983161C08831203
:1002F0000D1383169D010C1583128501860187015C
:100300008717C830E8001D210713203086008713A7
:1003100089298A2987170430E8001D212830E70041
:1003200032210C30E70032210130E7003221C330A6
:100330009600503095000030A1001F08C7392104F5
:100340009F00203003178D0083168C130C1483122A
:100350000C080313BE00A30132308400831323185A
:100360008317213003178D0083168C130C1483120E
:100370000C0880000313A301333084008313231877
:100380008317223003178D0083168C130C148312ED
:100390000C08800023308D0083168C130C148312FC
:1003A0000C080313C300243003178D0083168C132D
:1003B0000C1483120C080313C400253003178D009E
:1003C00083168C130C1483120C080313AF003E1D0C
:1003D000F0293E114208BF004308C0004408C10094
:1003E000C0308B048A15572867080739A000670CAE
:1003F000A100A10CA10C1F30A105210869078400F0
:1004000083136A188317A101A10AA00A082AA10D63
:10041000A00B072AE8080319102A21088004132AD0
:10042000A1092108800500346B080739A0006B0C76
:10043000A100A10CA10C1F30A10521086C078400AC
:1004400083136D1883170008A100A00A282AA10CA5
:10045000A00B272A8A15DE28A001A1016708031036
:100460006818A007A00CA10CE818A007A00CA10C0C
:100470006819A007A00CA10CE819A007A00CA10CFA
:10048000681AA007A00CA10CE81AA007A00CA10CE8
:10049000681BA007A00CA10CE81BA007A00CA10CD6
:1004A00000340330E702031C5F2A673084008313A3
:1004B000000803195F2A5D2A0000800B5C2A0034C3
:1004C000B101B001C901C801C908031D7D2A48084E
:1004D0003F3C031C7D2A1F151F196C2A83161E081A
:1004E0008312B0071E0803181E0FB107CF30E700B4
:1004F0005122C80A0319C90A642AB10CB00CB10C04
:10050000B00CB10CB00CB10CB00CB10CB00CB10C07
:10051000B00CB10CB00C0130B1058A156E29203039
:1005200003178D0003133E0803178C0083168C13EA
:100530000C15831203130B08A0008B1383160317EB
:1005400055308D00AA308D008C148C18A52A0C1102
:100550008312031320088B04A30132308400831319
:10056000231883170008E700213003178D000313B9
:10057000670803178C0083168C130C158312031362
:100580000B08A0008B138316031755308D00AA307B
:100590008D008C148C18CA2A0C11831203132008A6
:1005A0008B04A301333084008313231883170008BE
:1005B000E700223003178D000313670803178C0030
:1005C00083168C130C15831203130B08A0008B13D6
:1005D0008316031755308D00AA308D008C148C18AB
:1005E000EF2A0C118312031320088B042330031706
:1005F0008D000313430803178C0083168C130C150E
:10060000831203130B08A0008B13831603175530B6
:100610008D00AA308D008C148C180C2B0C118312B9
:10062000031320088B04243003178D0003134408A0
:1006300003178C0083168C130C15831203130B08FD
:10064000A0008B138316031755308D00AA308D0040
:100650008C148C18292B0C118312031320088B0483
:10066000253003178D0003132F0803178C00831602
:100670008C130C15831203130B08A0008B13831625
:10068000031755308D00AA308D008C148C18462B22
:100690000C118312031320088B048A15592A07179B
:1006A0006E08F039EF0086008713562B572B8717FB
:1006B000EE0E6E08F039EF00860087135F2B602B7B
:1006C00087178530A000A00B632B0034E801680871
:1006D000063C031C792B670DA000A00DA00DF8307F
:1006E000A005200868073720EA00EE004F23E80A3B
:1006F000672B0034A101A201A001A3017308031D0F
:10070000842B720803199E2B1030F4000310F00D97
:10071000F10DA00DA30D73082302031D912B720888
:100720002002031C9A2B7208A002031CA303730867
:10073000A3020314A10DA20DF40B862B0034C901F2
:10074000C801C908031DC92B4808043C031CC92B58
:100750006930480784008313491883176808F1003B
:100760006708F000F3010A30F2007A2330302007E6
:1007700080006808F1006708F000F3010A30F20019
:100780007A232208E8002108E700C80A0319C90AE9
:10079000A12B6B08EE004F236A08EE004F232E308A
:1007A000EE004F236908EE004F232030EE004F2368
:1007B000DF30EE004F234330EE004F232030EE00B9
:1007C0004F2300346C08A1016B020318EA2B6B085D
:1007D000A000F62BA0010830ED00EB0DA00D6C0879
:1007E00020020318A000A10DED0BED2B0034E7084B
:1007F000031D012C4708E8004608E9004508EA0007
:10080000102C3E1D0A2C4108E8004008E9003F0872
:10081000EA00102C4408E8004308E9004208EA0016
:100820006808EB000A30EC00E22330302107EC00CE
:10083000EE004F236808EB000A30EC00E223303072
:100840002007EC00EE004F233A30EE004F236908FA
:10085000EB000A30EC00E22330302107EC00EE0020
:100860004F236908EB000A30EC00E2233030200708
:10087000EC00EE004F233A30EE004F236A08EB0005
:100880000A30EC00E22330302107EC00EE004F2369
:100890006A08EB000A30EC00E22330302007EC005D
:1008A000EE004F230034BD0A3D08323C031D5E2C90
:1008B000BD01BC0A3C08013C031CBC010230E7003E
:1008C00032218030E70032213C08E7006623C03047
:1008D000E70032213C08F63E0318182D0A3E1A2D77
:1008E0003108E8003008E7009F23182DE701F723BF
:1008F000182D3E1D7F2C0A30E7006623822C0B301A
:10090000E70066232030EE004F23182DBE1D8C2CEF
:100910000A30E70066238F2C0B30E7006623203077
:10092000EE004F23182D2F08043C0319C62C30303D
:100930002F07E700EE004F232F08013A0319A72CD9
:10094000033A0319AB2C013A0319AF2CB32C7230C4
:10095000EE004F23B32C6430EE004F23B32C7230E3
:10096000EE004F23B32C6130EE004F232E30EE000B
:100970004F232030EE004F235630EE004F236530DA
:10098000EE004F236C30EE004F23DE2C4530EE009E
:100990004F236330EE004F236F30EE004F232030A3
:1009A000EE004F234D30EE004F236F30EE004F230B
:1009B0006430EE004F236530EE004F23182DBE1C2F
:1009C000E52C0A30E7006623E82C0B30E7006623AD
:1009D0002030EE004F232030EE004F232030EE0079
:1009E0004F23182D3308E8003208E7009F23182D05
:1009F000E701F723182D0130E700F723182D4430C5
:100A0000EE004F236530EE004F237430EE004F238D
:100A10006530EE004F236330EE004F237430EE005C
:100A20004F236530EE004F236430EE004F23182D26
:100A30008A150D2B0A148A100A158207702C762C41
:100A4000792C862C932CDF2CF22CF82CFB2CFF2CF1
:10100000840183131F30830583161F149F141F153B
:101010009F1107309C000A308312AE000130AF00F0
:10102000FA30B000B101B200B301B400B501B601AD
:10103000B7010830B8000730B9000830BA000730EF
:10104000BB00BC01BD013E14BE103E11BE113E12DC
:10105000BE123E13BF01C0010130C100C201C30175
:101060000630C400C501C6010C30C700C801C90163
:10107000CA01CB01CC01CD01CE01CF01D001D101FC
:10108000D201D301D401D501D601D701D801D901AC
:10109000DA01DB01DC01DD010130DE00DF00E0010F
:1010A000E101E201E301E401E5018A1148298A1521
:1010B000DE01851ADE0ADE08031D6629E008031D2D
:1010C0006629E101E201C901C801DF01DE01851ADB
:1010D000DE0A5F085E02031991280108E30081011E
:1010E000600B8B2863081F3C031C81286208E70003
:1010F0000130E800EA014B30E9008A11F4218A1539
:101100008A286208E700E801EA014B30E9008A1109
:10111000F4218A15E20A5E08DF00C901C801013026
:10112000E000C80A0319C90A4908093C03189F28A6
:10113000FF3A031DA3284808283C031CA328620883
:10114000473C0318A628E0010130E100E10803193B
:1011500066286208483C031CB8286208E700E801DA
:10116000EA014B30E9008A11F4218A15E20AA92824
:10117000C901C801C908031D1E294808083C031CF1
:101180001E29CA014A08073C031C1A29480DE7001A
:10119000490DE800E70DE80DE70DE80DF830E7052B
:1011A0004A086707E9006808EA000318EA0A6908BC
:1011B000EB00ED014B30EC008A11142A8A15003047
:1011C000211801300139013C031DFF285430480724
:1011D000A1004908A3000318A30A2108840083136F
:1011E000231883170130A0004A08A1000319FC2826
:1011F0000310A00DA10BF8282008800418295430F2
:101200004807A1004908A3000318A30A2108840085
:101210008313231883170130A0004A08A100031983
:1012200015290310A00DA10B11292008FF3A8005F4
:10123000CA0AC228C80A0319C90ABA28CA014A0830
:10124000073C031C6629C901C8014A08E7000A30A7
:10125000E8008A112C228A1521084807A1004908B4
:10126000A3000318A30A21088A119B208A15A10054
:10127000E40054304807840083134918831700089A
:10128000E500C80A0319C90AC908031D4F294808FF
:10129000083C031C4F2965086402031925294808E6
:1012A000093C031D6429C908031D64294A08E70095
:1012B0000A30E8008A112C228A15093021078A1188
:1012C0009B208A15A100DD00CA0A1F29B608031D4C
:1012D0005B2BB708031D5B2B8A11602A8A15871CBC
:1012E00075295D08503C031D8729871C75293E140C
:1012F0000830BE06BE1D3E173E114208BF0043081F
:10130000C0004408C1000330BC002830BD005D08A7
:10131000533C031D92293E14BC0A3C08083C031CA4
:10132000BC01BD015D08543C031DA5293E143C08C9
:10133000053C031C9D290630BC00BC0A3C08093C46
:10134000031DA4290630BC00BD018618E129C9018E
:10135000C8018618BB29C908031DBB294808FE3CE3
:10136000031CBB29C80A0319C90A0130E8008A1105
:101370001D218A15A929480FD229C908031DD22980
:10138000BE1DCF293E144208BF004308C0004408D8
:10139000C1000430BE060230BC002830BD00861CEF
:1013A000CF29E1293E143C08053C031CD92906300D
:1013B000BC00BC0A3C08093C031DE0290630BC0007
:1013C000BD01071CE7295D082B3C031D1A2A3E14AA
:1013D0003C08053C031CEE290630BC003C08083CD8
:1013E000031DFB293E110F30C30743083C3C031D7E
:1013F000FA29C301192A3C08073C031D072AC60A1B
:10140000C50146083C3C031D062AC601192A3C08B2
:10141000063C031D192A3308013C031C192A031D2D
:10142000152A32088F3C031C192A0230B207031810
:10143000B30ABD01861D202A5D082D3C031D522ADA
:101440003E143C08053C031C272A0630BC003C081F
:10145000083C031D342A3E11C40A44080D3C031DF8
:10146000332A0130C400512A3C08073C031D402A9E
:10147000C70A47080D3C031D3F2A0130C700512A07
:101480003C08063C031D512AB308031D4B2A3208B1
:10149000963C0318512A0230B2020030031C01307E
:1014A000B302BD01051A612ABE1A5A2ABE168A1154
:1014B0008F2A8A150730B9000830B8000930BC00FF
:1014C000BD01BE1D962A061C692A5D08433C031D0A
:1014D000722A061C692A3E140230BE060530BC0082
:1014E0002830BD00061D782A5D08463C031D852A6C
:1014F000061D782A3E14AF0A2F08053C031D822AD8
:101500000130AF000430BC00BD015D08743C031D18
:10151000962A3E144208BF004308C0004408C10098
:101520000430BE060230BC002830BD00DD01BE1D07
:10153000072BBE1A022B3E1DAF2AC008031DAF2A7F
:10154000C108031DAF2ABF08031DAF2A3E11420880
:10155000BF004308C0004408C100BE113E17BE1CB6
:10156000DA2A35083102031CC62A031DBB2A3008BB
:1015700034020318C62A3E1605303202B40033087E
:10158000B5000030031C0130B502D92A3E1A3E17BF
:101590003E1205303207E7003308E8000318E80A76
:1015A00001306702B4006808B5000030031C013048
:1015B000B502DD2A3E1A3E173E1201302F02FC3ED4
:1015C0000318FA2A043E6D2B871107120715FA2A11
:1015D000071107128715FA2A071187110716FA2A29
:1015E0003E1EF62A071187110716F92A87110712DE
:1015F0000715FA2A3E1B002B3E1E002B8716012BD7
:101600008712062B87120711871107120B2B8712DF
:101610000711871107128A11532C8A153E1C3A2B89
:10162000C901C8014908023C031C352B031D1C2BB2
:101630004808573C031C352B66108518661466183D
:10164000272BC830E7008A1151228A152C2BC8306D
:10165000E7008A1151228A15661C302B8510312B28
:101660008514C80A0319C90A122B6430E8008A11CC
:101670001D218A153E1F492B3A080319BB03BA0BDB
:10168000492BBB08031D492B3E130730BB00083014
:10169000BA00BE1E582B38080319B903B80B582BD3
:1016A000B908031D582BBE120730B9000830B80026
:1016B0003E1C5B2B3E10B60A0319B70A3608903C55
:1016C000031D662B370B662BB701B601FA30E70016
:1016D0008A1151228A15582863000A148A140A11A3
:0A16E0008207E42AE82AEC2AF02A27
:0C4240000000FA00000000000600010071
:02400E00723FFF
:00000001FF
;PIC16F873A
